:020000020000FC
:20000000004000B4084008140800683A0000000000000000000000000000000000000000DE
:2000080006C00134DEC00014068000B4D6A68714008000B410868F1400C000B418C6931474
:2000100010C00326100000151080010410FFFD3600201080002018C0003FFF06DEFFFD0411
:20001800DFC00215DF000115DF000104010000B42105C80400202080008001341084000485
:200020001080000310803FCCE0BFFF150080013410840404E0FFFF1710C00005003FF60689
:20002800DEFFFC04DF000315DF000304E13FFF15E17FFE15E1BFFD15E0FFFE17E0BFFF17FC
:2000300018800C2600000806E0FFFF1718800104E0BFFF15E0BFFE1711000104E13FFE1596
:2000380018C0001710C00015E0FFFE17E0BFFD1718BFF51E0001883AE037883ADF000017B1
:20004000DEC00104F800283ADEFFFE04DFC00115DF000015D839883A018000B431868F04C9
:20004800014000B42945D904010000B42105D90400200A00018000B431800804014000B48F
:2000500029400804010000B42100080400200A00018000B43185D904014000B42945C80418
:20005800010000B42105C80400200A00002086000020A5800001883AE037883ADFC0011779
:20006000DF000017DEC00204F800283ADEFFFD04DFC00215DF000115DF0001040009883A54
:20006800002049800001883A00204D40018000B43185CE04014000B42945CE04010000B478
:200070002105CE040020B4C000209900010000B421027D0400211240D0A00817D0E0091700
:20007800D1200A17200D883A180B883A1009883A002005C0E0BFFF150100004400207840F2
:20008000E13FFF1700211380DEFFF204DFC00A15DF000915DF000904E13FF715E140021598
:20008800E1800315E1C00415E0800204E0BFF815E0BFF717E0BFFF1500006F06E0BFFEC7DA
:20009000108009601000041EE0BFFEC71009883A0020434000006806E0BFFF1710C000440C
:20009800E0FFFF1510800003E0BFFEC5E0BFFEC710006926E0BFFEC7108009581000041ED6
:2000A000E0BFFEC71009883A0020434000005A06E0BFFEC7108018D81000081EE0BFF81736
:2000A80010C00104E0FFF81510800017E0BFF915E13FF9170020434000004F06E0BFFEC797
:2000B00010801E181000341EE0BFF81710C00104E0FFF81510800017E0BFFB15E0BFFB1792
:2000B8001000031E01000C04002043400000420600800704E0BFFD1500000306E0BFFD1703
:2000C00010BFFF04E0BFFD1500C003C4E0BFFD171884983A1007883AE0BFFB171884703A25
:2000C800103FF6260000190600C003C4E0BFFD171884983A1007883AE0BFFB171886703A14
:2000D000E0BFFD171884D83AE0BFFA15E0BFFA17108002A81000041EE0BFFA1710800C0495
:2000D800E0BFFEC500000306E0BFFA17108015C4E0BFFEC5E0BFFEC71009883A0020434040
:2000E000E0BFFD1710BFFF04E0BFFD15E0BFFD17103FE50E00001806E0BFFEC710801CD8CF
:2000E8001000151EE0BFF81710C00104E0FFF81510800017E0BFFC1500000906E0BFFC172E
:2000F00010C00044E0FFFC151080000310803FCC1080201C10BFE0041009883A00204340C1
:2000F800E0BFFC171080000310803FCC1080201C10BFE004103FF11EE0BFFF1710C0004462
:20010000E0FFFF1510800003E0BFFEC5E0BFFEC7103F8A1E000001060001883A0001883A0F
:20010800E037883ADFC00117DF000017DEC00504F800283ADEFFFD04DFC00215DF000115C7
:20011000DF000104E13FFF15E13FFF1700211900E037883ADFC00117DF000017DEC002041D
:20011800F800283ADEFFFD04DFC00215DF000115DF000104E13FFF15D1600204E13FFF175F
:2001200000208E80E037883ADFC00117DF000017DEC00204F800283ADEFFFD04DFC0021579
:20012800DF000115DF000104E13FFF150020EB00008000441001703A0001883A0001883A9A
:20013000E037883ADFC00117DF000017DEC00204F800283ADEFFFE04DFC00115DF000015A3
:20013800D839883A010000B42105D904002046400001883AE037883ADFC00117DF0000172D
:20014000DEC00204F800283ADEFFFA04DFC00515DF000415DF000404E13FFE15E17FFD1589
:20014800E1BFFC15E0BFFE1710800017E0BFFF15E0BFFF1710C00A04E0BFFE1710800217E8
:20015000100F883AE1BFFC17E17FFD171809883A00205C80E037883ADFC00117DF00001722
:20015800DEC00204F800283ADEFFFA04DFC00515DF000415DF000404E13FFE15E17FFD1571
:20016000E1BFFC15E0BFFE1710800017E0BFFF15E0BFFF1710C00A04E0BFFE1710800217D0
:20016800100F883AE1BFFC17E17FFD171809883A00206B40E037883ADFC00117DF0000173B
:20017000DEC00204F800283ADEFFF704DF000815DF000804E13FFB15E17FFA15E1BFF91565
:20017800E1FFF815E0BFFB1710800017E0BFFE15E0BFFA17E0BFFF15E0BFF917E0FFFA176E
:200180001885883AE0BFFD1500001206E0BFFE1710800037E0BFFC15E0BFFC1710A0000C9E
:2001880010000626E0BFFF1710C00044E0FFFF15E0FFFC1710C0000500000606E0FFFF1797
:20019000E0BFFA171880071EE0BFF8171090000C1000061EE0FFFF17E0BFFD1718BFEB36B4
:20019800000003060001883A000001060001883AE0FFFF17E0BFFA1718800426E0FFFF1755
:2001A000E0BFFA171885C83A00000606E0BFF8171090000C1000022600BFFD44000001064B
:2001A80000BFFEC4E037883ADF000017DEC00104F800283ADEFFF904DF000615DF0006042D
:2001B000E13FFD15E17FFC15E1BFFB15E1FFFA15E0BFFD1710800017E0BFFF15E0BFFB172F
:2001B800E0FFFC171885883AE0BFFE1500000E06E0BFFF17108001041080003710BFFFEC45
:2001C00010000926E0FFFF17E0BFFC1711000044E13FFC151080000310803FCC1080201CB9
:2001C80010BFE00418800035E0FFFC17E0BFFE1718BFEF36E0BFFB17E037883ADF00001775
:2001D000DEC00104F800283ADEFFFE04DFC00115DF000015D839883AD0A0051710000326F2
:2001D800D0A00517103EE83A00000106D0A00B04E037883ADFC00117DF000017DEC002045B
:2001E000F800283ADEFFFB04DFC00415DF000315DF000304E13FFD15E0BFFD171000091620
:2001E800E0FFFD171805883A1085883A10C5883A100490BA00C000B418C5EE0410C5883AFF
:2001F000000001060005883AE0BFFF15E0BFFF1710001926E0BFFF17108000171080041763
:2001F80010000626E0BFFF171080001710800417E13FFF17103EE83A000001060005883A30
:20020000E0BFFE15E13FFD170020E400E0BFFE171000070E002074801007883AE0BFFE177A
:200208000085C83A1880001500BFFFC4000007060005883A00000506002074801007883A54
:20021000008014441880001500BFFFC4E037883ADFC00117DF000017DEC00204F800283A43
:20021800DEFFFF04DF000015D839883A0001883AE037883ADF000017DEC00104F800283A90
:20022000DEFFFC04DF000315DF000304E13FFF15E17FFE15E1BFFD15E0BFFD17E037883A1F
:20022800DF000017DEC00104F800283ADEFFFE04DFC00115DF000015D839883AD0A00517DC
:2002300010000326D0A00517103EE83A00000106D0A00B04E037883ADFC00117DF0000176D
:20023800DEC00204F800283ADEFFFA04DFC00515DF000415DF000404E13FFD15E17FFC1592
:20024000E0BFFD1710000326E0BFFD17108002171000061E00208AC01007883A00800584D6
:200248001880001500BFFA8400001406E0BFFD17E0FFFC17E0FFFF15E0BFFE15E0BFFE1794
:20025000E0FFFF1710C00115E0BFFF1710C00017E0BFFE1710C00015E0BFFF171080001722
:20025800E0FFFE1710C00115E0BFFF17E0FFFE1710C000150001883A0005883AE037883ABB
:20026000DFC00117DF000017DEC00204F800283ADEFFFD04DFC00215DF000115DF00010466
:20026800008000B41085C704E0BFFF1500000606E0BFFF1710800017103EE83AE0BFFF17A2
:2002700010BFFF04E0BFFF15E0FFFF17008000B41085C80418BFF62E0001883A0001883ADE
:20027800E037883ADFC00117DF000017DEC00204F800283ADEFFFD04DFC00215DF00011559
:20028000DF000104008000B41085C704E0BFFF1500000606E0BFFF1710800017103EE83A5B
:20028800E0BFFF1710BFFF04E0BFFF15E0FFFF17008000B41085C80418BFF62E0001883AD4
:200290000001883AE037883ADFC00117DF000017DEC00204F800283ADEFFFF04DF00001533
:20029800D839883A0001883AE037883ADF000017DEC00104F800283ADEFFF904DFC0061550
:2002A000DF000515DF000504E13FFE15E17FFD15E1BFFC15E1FFFB15E1BFFB17E17FFC17F2
:2002A800E13FFD170020CE00E0BFFF15E0BFFF1710002016E0FFFF171805883A1085883A3B
:2002B00010C5883A100490BA00C000B410C7883A18C5EE17E0BFFE1710C00015E0FFFF17BC
:2002B8001805883A1085883A10C5883A100490BA00C000B410C7883A18C5EF17E0BFFE1757
:2002C00010C00115E0FFFF171805883A1085883A10C5883A100490BA00C000B410C7883A0B
:2002C80018C5F017E0BFFE1710C00215E13FFF170020E4000001883AE037883ADFC001170A
:2002D000DF000017DEC00204F800283ADEFFFB04DFC00415DF000315DF000304E13FFF1575
:2002D800E17FFE15E1BFFD1501C07FC401800044E17FFF17010000B42105F1040020A7808B
:2002E00001C07FC4000D883AE17FFE17010000B42105EE040020A78001C07FC401800044D9
:2002E800E17FFD17010000B42105F4040020A7800001883AE037883ADFC00117DF0000171F
:2002F000DEC00204F800283ADEFFFE04DFC00115DF000015D839883AD0A0051710000326D0
:2002F800D0A00517103EE83A00000106D0A00B04E037883ADFC00117DF000017DEC002043A
:20030000F800283ADEFFFD04DF000215DF000204E13FFE15E0BFFE171080021710D0003426
:20030800E0BFFE1710C00215E03FFF1500002306E0FFFF171805883A1085883A10C5883A1C
:20031000100490BA00C000B410C7883A18C5EE17E0BFFE17108000171880151EE0FFFF1765
:200318001805883A1085883A10C5883A100490BA00C000B410C7883A1885F01710000C0EBF
:20032000E0FFFF171805883A1085883A10C5883A100490BA00C000B418C5EE0410C5883AC3
:20032800E0FFFE171880022600BFFCC400000806E0BFFF1710800044E0BFFF15D0A00417AD
:200330001007883AE0BFFF1718BFD92E0005883AE037883ADF000017DEC00104F800283AAE
:20033800DEFFF604DFC00915DF000815DF000804E13FFA15E17FF915E1BFF81500BFFFC45E
:20034000E0BFFE1500BFFB44E0BFFD15E03FFC15D1600204E13FFA170020ED40E0BFFF15A4
:20034800E0BFFF171000051EE13FFA170020F640E0BFFF1500800044E0BFFC15E0BFFF174A
:2003500010002C26E13FFF17002106C0E0BFFE15E0BFFE171000030EE0BFFE17E0BFFD1522
:2003580000002606E0FFFE171805883A1085883A10C5883A100490BA00C000B418C5EE04F7
:2003600010C5883AE0BFFB15E0FFF9170090003410BFFFC41886703AE0BFFB1710C0021512
:20036800E0BFFC171000051EE13FFB170020C040E0BFFD15E0BFFD1710001016E0BFFF17EF
:200370001080031710000826E0BFFF1710800317E1FFF817E1BFF917E17FFA17E13FFB17E4
:20037800103EE83A000001060005883AE0BFFD150000020600BFFB44E0BFFD15E0BFFD170C
:200380001000090EE13FFE170020E4000020BC801007883AE0BFFD170085C83A18800015E1
:2003880000BFFFC400000106E0BFFE17E037883ADFC00117DF000017DEC00204F800283A94
:20039000DEFFFE04DF000115DF000104E13FFF15E0BFFF17108000D01000101EE0FFFF1719
:200398001805883A1085883A10C5883A100490BA00C000B410C7883A1805F015E0FFFF17F6
:2003A0001805883A1085883A10C5883A100490BA00C000B410C7883A1805EE150001883A22
:2003A800E037883ADF000017DEC00104F800283ADEFFFF04DF000015D839883A000170FA57
:2003B0000001883AE037883ADF000017DEC00104F800283ADEFFFA04DFC00515DF00041512
:2003B800DF000404E13FFD15E17FFC15E0BFFC1710800017E0BFFF15E13FFD1700211A80A0
:2003C00010800044E0BFFE1500000D06E0BFFF1710800217E0FFFE17180D883AE17FFD17D7
:2003C8001009883A002115801000021EE0BFFF1700000706E0BFFF1710800017E0BFFF1583
:2003D000E0FFFF17E0BFFC1718BFF01E0005883AE037883ADFC00117DF000017DEC0020490
:2003D800F800283ADEFFFB04DFC00415DF000315DF000304E13FFD15D0A00017E0BFFF15CE
:2003E00000003106E0BFFF17108002171009883A00211A80E0BFFE15E0BFFF1710C0021782
:2003E800E0BFFE1710BFFFC41885883A1080000310803FCC1080201C10BFE00410800BD830
:2003F0001000031EE0BFFE1710BFFFC4E0BFFE15E0BFFE17E0FFFD171885883A108000032B
:2003F80010803FCC1080201C10BFE00410800BE01000081EE0BFFE17E0FFFD171885883A14
:200400001080000310803FCC1080201C10BFE00410000A1EE0BFFF1710800217E0FFFE17A5
:20040800180D883AE17FFD171009883A002115801000021EE0BFFF1700000706E0BFFF1741
:2004100010800017E0BFFF15E0FFFF17D0A0000418BFCC1E0005883AE037883ADFC00117F1
:20041800DF000017DEC00204F800283ADEFFFC04DF000315DF000304E13FFD1500BFFA0427
:20042000E0BFFE15E03FFF1500001D06E0FFFF171805883A1085883A10C5883A100490BA94
:2004280000C000B410C7883A1885EE171000111EE0FFFF171805883A1085883A10C5883A04
:20043000100490BAE13FFD1700C000B410C7883A1905EE15D0E00417E0BFFF171880020EC4
:20043800E0BFFF17D0A00415E0BFFF17E0BFFE1500000706E0BFFF1710800044E0BFFF15B6
:20044000E0BFFF1710800810103FE01E0001883AE0BFFE17E037883ADF000017DEC0010409
:20044800F800283A200B883A000F883A000D883A0009883A00211C41DEFFFE04000B883AB8
:20045000DC000015DFC001152021883A00212E008009883A00215A800007883A30C0021E75
:200458000005883AF800283A20C5883A18C0004428CF883A1080000339FFFFC311FFF7262D
:2004600011C5C83AF800283A21800217002145C1008000B410868E17200B883A1180021763
:200468001009883A002145C12005883A10C000071800021E1105C83AF800283A1080004436
:20047000003FFA06008000B410868D17DEFFF904DC00001514000D17DD400515DD0004158F
:20047800DCC00315DC800215DFC00615DC4001152025883A2827883A302B883A3829883AF9
:200480008000081E14000E0400C0003414000D1518C000041800032600C0003418C0001766
:2004880010C03015844001178880081010000A1E00BFFFC4DFC00617DD400517DD0004179C
:20049000DCC00317DC800217DC400117DC000017DEC00704F800283A9000192680802217EF
:200498001000091E0080003410800004103FF0260100420400000000103FED261000401552
:2004A0001000411580802215880890BA00C000441C46983A1109883A25400015114040178F
:2004A8009480009828CAB03A11404015250020159000031E1100411720C6B03A10C041159C
:2004B000888000448C400084882290BA808001150005883A8461883A84C00015003FD506A5
:2004B800DEFFF604008000B4DD80061515868D17DD400515DD000415DFC00915DF0008157C
:2004C000DDC00715DCC00315DC800215DC400115DC000015202B883A2829883AB4400D17E1
:2004C800880007268C0001178CC0221784BFFFC4802090BA9C2F883A8C21883A90000C0EA0
:2004D000DFC00917DF000817DDC00717DD800617DD400517DD000417DCC00317DC800217BE
:2004D800DC400117DC000017DEC00A04F800283AA00007269800041E94BFFFC4BDFFFF047B
:2004E000843FFF04003FED06B8C01F171D3FFA1E8900011780C00117213FFFC424800F1EF5
:2004E8008C800115183FF4268F0001179800052600800044148C983A990040173108703AEE
:2004F0002000081E183EE83A89000117B0C00D17273FD21E88FFE826003FD0068000011563
:2004F800003FF00699404117B93FFF17314C703A3000041E200B883AA809883A183EE83A1F
:20050000003FF106183EE83A003FEF06DEFFFD04008000B4DC000115DFC0021510852C047A
:2005080028800115008000B4D90000C52021883A11068E1701C00044D98000C400214B00F6
:2005100010FFFFE01800011E8005883ADFC00217DC000117DEC00304F800283ADEFFFD04D6
:20051800008000B4DC000115DFC0021510852C0430800115008000B411068E172821883A61
:2005200001C00044300B883AD98000C4DC0000C500214B0010FFFFE01800011E8005883A23
:20052800DFC00217DC000117DEC00304F800283A2880000B1080020C100025262880008F25
:20053000DEFFFB04DCC00315DC800215DC400115DC000015DFC004152027883A2821883AB9
:200538003025883A3823883A1000100E8080000B108010148080000D00BFFFC400000D06E0
:2005400088810050880F883A1000011E01C100048140008F900D883A9809883A00215580EC
:2005480000BFF20E88A3C83A90A5883A047FF4160005883ADFC00417DCC00317DC80021777
:20055000DC400117DC000017DEC00504F800283A00BFFFC4F800283ADEFFFE04DC000015B7
:20055800008000B42021883A2809883A300B883A380D883ADFC0011510069215002161C0A1
:2005600010FFFFD81800041E00C000B418C692171800012680C00015DFC00117DC00001722
:20056800DEC00204F800283ADEFFFD04DF000215DF000204E13FFE150001883AE0BFFE1712
:20057000E0BFFF15E0BFFF1710000226002AF07000000106002AF0B00001883A003FFF0669
:20057800DEFFFE04DFC00115DF000015D839883AD0A0051710000326D0A00517103EE83A47
:2005800000000106D0A00B04E037883ADFC00117DF000017DEC00204F800283ADEFFF90477
:20058800DFC00615DF000515DF000504E13FFD15E17FFC15E1BFFB15E0BFFD171000091683
:20059000E0FFFD171805883A1085883A10C5883A100490BA00C000B418C5EE0410C5883A53
:20059800000001060005883AE0BFFF15E0BFFF1710002126E0BFFF1710800217108000CCFC
:2005A00010001826E0BFFF17108000171080061710001426E0BFFF17108000171080061791
:2005A800E0FFFB17180D883AE17FFC17E13FFF17103EE83AE0BFFE15E0BFFE171000070EB7
:2005B00000215E001007883AE0BFFE170085C83A1880001500BFFFC400000C06E0BFFE17A3
:2005B80000000A0600215E001007883A00800344188000150000040600215E001007883AE5
:2005C000008014441880001500BFFFC4E037883ADFC00117DF000017DEC00204F800283A90
:2005C8006C6C65487266206F4E206D6F20736F6921204949000000217665642F61746A2FA2
:2005D00061755F67000074727665642F61746A2F61755F67000074727665642F6C756E2F3F
:2005D8000000006C00000000000000000002174800000000000000000002050800020568B8
:2005E0000000000000000000000000000004102000021A2400021A240002175800000000D6
:2005E8000000000000000000000208800000000000000000000000000002179000000000C0
:2005F000000000000002179000000000000000000002179000000000000000000000000099
:2005F8000000000000000000000000000000000000000000000000000000000000000000E3
:200600000000000000000000000000000000000000000000000000000000000000000000DA
:200608000000000000000000000000000000000000000000000000000000000000000000D2
:200610000000000000000000000000000000000000000000000000000000000000000000CA
:200618000000000000000000000000000000000000000000000000000000000000000000C2
:200620000000000000000000000000000000000000000000000000000000000000000000BA
:200628000000000000000000000000000000000000000000000000000000000000000000B2
:200630000000000000000000000000000000000000000000000000000000000000000000AA
:200638000000000000000000000000000000000000000000000000000000000000000000A2
:2006400000000000000000000000000000000000000000000000000000000000000000009A
:2006480000000000000000000000000000000000000000000000000000000000000219FC7B
:2006500000021A0400021A0C00000000000000000000000000000000000000000000000042
:20065800000000000000000000000000000000000000000000000000000000000000000082
:2006600000000000000000000000000000000000000000000000000000000000000000007A
:20066800000000000000000000000000000000000000000000000000000000000000000072
:2006700000000000000000000000000000000000000000000000000000000000000000006A
:2006780000000000000000000000000000000000000000000000000000000000000000045E
:20068000000000000001000A000000000002000A00000000000000000000000000021A1C0B
:2006880000021A1C0002179000021790FFFFFFFF0000000000021938000219380000000026
:2006900000000000000000000000000000000000000000000000000000000000000000004A
:20069800000000000000000000000000000000000000000000000000000000000000000042
:2006A00000000000000000000000000000000000000000000000000000000000000000003A
:2006A800000000000000000000000000000000000000000000000000000000000000000032
:00000001FF
